:100000000C9463000C948B000C948B000C94B5043E
:100010000C94B5040C94B5040C948B000C948B00D8
:100020000C948B000C948B000C948B000C948B0024
:100030000C948B000C948B000C948B000C948B0014
:100040000C9450030C948B000C941E030C94F80237
:100050000C948B000C948B000C948B000C948B00F4
:100060000C949A030C948B0000000008000201001D
:100070000003040700000000000000000000000072
:1000800023002600290000000000240027002A0089
:1000900000000000250028002B00040404040404D0
:1000A0000404020202020202030303030303010227
:1000B00004081020408001020408102001020408F6
:1000C00010207905100811241FBECFEFD8E0DEBF45
:1000D000CDBF22E0A0E4B1E001C01D92AE3BB2076B
:1000E000E1F711E0A0E0B1E0E0E3F5E102C0059046
:1000F0000D92A034B107D9F710E0C2E6D0E004C0F9
:100100002197FE010E949308C136D107C9F70E94CA
:1001100097060C948B0A0C940000AF92BF92CF927A
:10012000DF92EF92FF920F931F93CF93DF936C01B7
:100130007B018B01040F151FEB015E01AE18BF0898
:10014000C017D10759F06991D601ED91FC9101904A
:10015000F081E02DC6010995892B79F7C501DF9162
:10016000CF911F910F91FF90EF90DF90CF90BF90B4
:10017000AF900895FC01538D448D252F30E0842FDE
:1001800090E0821B930B541710F0CF9608950197BF
:100190000895FC01918D828D981761F0A28DAE0FAC
:1001A000BF2FB11D5D968C91928D9F5F9F73928F33
:1001B00090E008958FEF9FEF0895FC01918D828D5F
:1001C000981731F0828DE80FF11D858D90E008952C
:1001D0008FEF9FEF0895FC01918D228D892F90E084
:1001E000805C9F4F821B91098F739927089588EF38
:1001F00091E00E94EB0021E0892B09F420E0822F9E
:100200000895FC01A48DA80FB92FB11DA35ABF4FAB
:100210002C91848D90E001968F739927848FA68905
:10022000B7892C93A089B1898C91837080648C9359
:10023000938D848D981306C00288F389E02D808108
:100240008F7D80830895EF92FF920F931F93CF933A
:10025000DF93EC0181E0888F9B8D8C8D98131AC001
:10026000E889F989808185FF15C09FB7F894EE89E8
:10027000FF896083E889F989808183708064808345
:100280009FBF81E090E0DF91CF911F910F91FF9090
:10029000EF900895F62E0B8D10E00F5F1F4F0F7338
:1002A0001127E02E8C8D8E110CC00FB607FCFACFF3
:1002B000E889F989808185FFF5CFCE010E9401018F
:1002C000F1CFEB8DEC0FFD2FF11DE35AFF4FF082C4
:1002D0009FB7F8940B8FEA89FB8980818062CFCF2A
:1002E000CF93DF93EC01888D8823B9F0AA89BB896D
:1002F000E889F9898C9185FD03C0808186FD0DC058
:100300000FB607FCF7CF8C9185FFF2CF808185FF78
:10031000EDCFCE010E940101E9CFDF91CF91089589
:1003200080E090E0892B29F00E94F70081110C9465
:10033000000008953FB7F8948091F0019091F10189
:10034000A091F201B091F30126B5A89B05C02F3F03
:1003500019F00196A11DB11D3FBFBA2FA92F982FEB
:100360008827BC01CD01620F711D811D911D42E0E6
:10037000660F771F881F991F4A95D1F7089585ED5D
:100380008093BC008091BC0084FDFCCF1092C5011D
:1003900008952091A101260F3327331F2132310503
:1003A000ECF42091C501FC0190E080E0243069F07C
:1003B00082E00895A091A1012191AC014F575E4FB9
:1003C000A40FB52FB11D2C930196861798F3809139
:1003D000A101680F6093A10180E0089581E0089574
:1003E00008958FEF9FEF08958FEF9FEF089580910D
:1003F000800190E09195819591090895CF93DF93C5
:10040000CB01EA01642F0E94C901CE01DF91CF9197
:100410000895CF93DF931F92CDB7DEB7698361E074
:10042000CE0101960E94C90181E090E00F90DF911A
:10043000CF9108952091F6013091F70128173907DF
:1004400071F49091F4018091F501981741F0E091D9
:10045000F401F0E0E05CFE4F808190E008958FEFC2
:100460009FEF0895EF92FF920F931F93CF93DF9327
:10047000DC015C96ED90FC905D97E114F10479F459
:1004800081E090E013969C938E93129790E080E029
:10049000DF91CF911F910F91FF90EF9008955196AA
:1004A000ED91FC91529750968C915097982F909582
:1004B0000FB75E962C915E97122F127021FD6095FA
:1004C000F8942081112319F1282B2083E70121972B
:1004D000F1F728E0462F50E0308160FF1AC0382B3A
:1004E0003083E7012197F1F7BA017595679521509F
:1004F00089F7112381F08081892380830FBF5C9667
:100500008D919C910197F1F781E090E0C1CF292373
:10051000DCCF3923E5CF9081892BEFCF2091F601F5
:100520003091F7012817390771F48091F501209176
:10053000F40190E0805C9F4F821B910960E470E0C1
:100540000E946B08089590E080E008952091F601E4
:100550003091F70128173907B9F49091F40180918F
:10056000F501981789F0E091F401F0E0E05CFE4FAE
:1005700080812091F40130E02F5F3F4F2F733327AC
:100580002093F40190E008958FEF9FEF089590E09D
:1005900080E00895CF93DF93EC01809195029091D4
:1005A0009602009759F020919702309198022C17EB
:1005B0003D0720F081E0DF91CF910895BE016F5F8C
:1005C0007F4F0E94BE09009789F090939602809316
:1005D0009502D0939802C09397022091990230918E
:1005E0009A02232B39F7FC011082E4CF80E0E3CF9D
:1005F0001F920F920FB60F9211242F933F934F9398
:100600005F936F937F938F939F93AF93BF93EF937A
:10061000FF9388EF91E00E940101FF91EF91BF915C
:10062000AF919F918F917F916F915F914F913F918A
:100630002F910F900FBE0F901F9018951F920F9241
:100640000FB60F9211242F938F939F93EF93FF93E5
:10065000E0910802F09109028081E0910E02F09190
:100660000F0282FD1BC09081809111028F5F8F73FA
:1006700020911202821741F0E0911102F0E0E8505F
:10068000FE4F958F80931102FF91EF919F918F9173
:100690002F910F900FBE0F901F9018958081F4CF6F
:1006A0001F920F920FB60F9211242F933F938F93A7
:1006B0009F93AF93BF938091EC019091ED01A09136
:1006C000EE01B091EF013091EB0123E0230F2D37C4
:1006D00058F50196A11DB11D2093EB018093EC010B
:1006E0009093ED01A093EE01B093EF018091F001A2
:1006F0009091F101A091F201B091F3010196A11D39
:10070000B11D8093F0019093F101A093F201B09399
:10071000F301BF91AF919F918F913F912F910F90D6
:100720000FBE0F901F90189526E8230F0296A11D6B
:10073000B11DD2CF1F920F920FB60F9211242F939B
:100740003F934F935F936F937F938F939F93AF9359
:10075000BF93EF93FF938091B900887F803609F4AF
:100760004AC0F0F5883209F4A5C018F5803109F4C3
:1007700099C0B8F4882309F4F5C0883009F492C010
:10078000FF91EF91BF91AF919F918F917F916F9169
:100790005F914F913F912F910F900FBE0F901F903F
:1007A0001895883109F486C0803251F78093C401CE
:1007B00014C0803409F49BC040F48033B9F388330B
:1007C000F9F68093C40185ECAEC0803509F483C08E
:1007D000883509F494C0883499F60E94BF01D0CFBF
:1007E000883909F48AC038F5883729F050F48836FA
:1007F00011F0803729F683E08093C5011092C30180
:1008000055C0883809F479C0803919F0803809F06A
:10081000B7CF8091C301803208F06FC0E091C3016F
:1008200081E08E0F8093C3018091BB00F0E0ED5515
:10083000FE4F80833BC0803B39F0D0F4803A09F40E
:1008400077C0883A09F09CCF84E08093C50110926C
:10085000A2011092A101F0E0E0E009958091A101D0
:1008600081110FC081E08093A1011092810109C024
:10087000803C09F4A8CF883C09F4A5CF883B09F057
:100880007FCFE091A20181E08E0F8093A201F0E082
:10089000EF57FE4F80818093BB009091A201809121
:1008A000A10129C08091EA018093BB0085EC80936F
:1008B000BC0066CF9091E9018091E801981758F546
:1008C000E091E90181E08E0F8093E901F0E0E853C7
:1008D000FE4F8081E9CFE091E90181E08E0F8093A6
:1008E000E9018091BB00F0E0E853FE4F80839091D6
:1008F000E9018091E8019817C8F285E8D8CFE09126
:10090000E90181E08E0F8093E9018091BB00F0E066
:10091000E853FE4F80838091C70181115ECF81E053
:100920008093C60184EA8093BC001092C50128CF51
:1009300085EC8093BC001092C5018091C301803288
:1009400030F4E091C301F0E0ED55FE4F108260916C
:10095000C30170E083EA91E0F0E0E0E009951092D5
:10096000C3010ECF1092C40138CF1F920F920FB661
:100970000F9211242F933F934F935F936F937F9325
:100980008F939F93AF93BF93EF93FF93E091F60103
:10099000F091F701309749F0A685B7858585968D4A
:1009A00091FF14C09C918923A1F4FF91EF91BF9115
:1009B000AF919F918F917F916F915F914F913F91F7
:1009C0002F910F900FBE0F901F9018959C91892327
:1009D00061F7A389B4899C918589809589238C933B
:1009E000868997890197F1F7608D718DA685B78506
:1009F000558538E020E0CB010197F1F7822F90E098
:100A000095958795282F4C91452309F02068315002
:100A100091F7868D81FD20958091F50190E00196FA
:100A20008F7399273091F401381799F0A091F5014F
:100A3000B0E0A05CBE4F2C938093F501828D938D26
:100A40000197F1F7A389B4898C919589892B8C93AF
:100A5000ACCF868D8160868FF1CF90E0FC01E859A4
:100A6000FF4F2491FC01E255FF4F3491FC01E65603
:100A7000FF4FE491EE23C9F0222339F0233001F136
:100A8000A8F4213019F1223029F1F0E0EE0FFF1F18
:100A9000E057FF4FA591B4918FB7F894EC91611195
:100AA00026C030953E233C938FBF08952730A9F090
:100AB0002830C9F0243049F7809180008F7D03C031
:100AC000809180008F7780938000DFCF84B58F770F
:100AD00084BDDBCF84B58F7DFBCF8091B0008F7755
:100AE0008093B000D2CF8091B0008F7DF9CF3E2BA4
:100AF000DACF0F931F93CF93DF931092FB011092E5
:100B0000FA0188EE93E0A0E0B0E08093FC019093BE
:100B1000FD01A093FE01B093FF012AE031E0309384
:100B2000F9012093F80125EC30E030930502209381
:100B3000040224EC30E0309307022093060220ECFC
:100B400030E0309309022093080221EC30E030932A
:100B50000B0220930A0222EC30E030930D02209326
:100B60000C0226EC30E030930F0220930E0210921C
:100B7000110210921202109213021092140210929B
:100B80009E0210929D0280939F029093A002A093D8
:100B9000A102B093A2028CE191E090939C02809319
:100BA0009B021092B2021092B1021092B402109203
:100BB000B3021092B6021092B5021092B8021092CF
:100BC000B7026091B9026E7F6D7F6093B90266953E
:100BD000617081E068278BE00E942D0549EB50E0B1
:100BE000FA01649185EA90E0FC012491222399F0B6
:100BF00030E0220F331FF901EA57FF4FA591B4915E
:100C0000F901E057FF4F259134912FB7F8943C91AB
:100C1000632B6C932FBFFA0144914093AB02FC010C
:100C20008491E82FF0E0EE0FFF1FE057FF4F859112
:100C300094919093AD028093AC0208EB10E0F80120
:100C40002491C4EAD0E0FE0184918823C9F090E0A9
:100C5000880F991FFC01EA57FF4FA591B491FC0141
:100C6000E057FF4F459154913FB7F8949C91822FE4
:100C7000809598239C93FA019081892380833FBFBC
:100C80008091B90281FD04C061E08AE00E942D05D7
:100C90008AE08093A702F80104910093A802FE0164
:100CA000C491EC2FF0E0EE0FFF1FE458FF4F859149
:100CB00094919093AA028093A902109296021092A6
:100CC0009502109298021092970210929A02109236
:100CD000990290E080E00E94CA0220919502309132
:100CE0009602811117C02115310519F0C9010E9422
:100CF0003509109296021092950210929A02109263
:100D000099021092980210929702DF91CF911F9151
:100D10000F91089510929A02109299026FE371E078
:100D2000C901DF91CF911F910F910C94840ACF9349
:100D3000DF9300D0CDB7DEB7789484B5826084BDF0
:100D400084B5816084BD85B5826085BD85B58160CF
:100D500085BD80916E00816080936E00109281004D
:100D60008091810082608093810080918100816008
:100D700080938100809180008160809380008091C9
:100D8000B10084608093B1008091B0008160809355
:100D9000B00080917A00846080937A0080917A001C
:100DA000826080937A0080917A00816080937A00DB
:100DB00080917A00806880937A001092C100E0915F
:100DC0000802F091090282E08083E0910402F09130
:100DD00005021082E0910602F09107028FEC8083F9
:100DE00010921002E0910C02F0910D0286E08083D7
:100DF000E0910A02F0910B02808180618083E09192
:100E00000A02F0910B02808188608083E0910A02DF
:100E1000F0910B02808180688083E0910A02F0915A
:100E20000B0280818F7D80831092B6021092B502F2
:100E30001092B4021092B3021092B2021092B10258
:100E40008DE991E09093B8028093B7029091A70248
:100E5000963108F047C02DEB30E03093B20220937A
:100E6000B1022BE931E03093B4022093B3022CE2BB
:100E700031E03093B6022093B5022091680084E0FF
:100E8000983048F031E09E3008F430E081E001C055
:100E9000880F3A95EAF7822B809368002DE630E0C0
:100EA000983050F02BE630E09E3030F02CE630E009
:100EB000963110F030E020E03093AF022093AE0284
:100EC000292F30E0983008F092C081E001C0880FEF
:100ED0009A95EAF78093B0028091B7029091B80298
:100EE0000197F1F78091B5029091B602892B49F1F3
:100EF000E091F601F091F70122E0EB39F20709F1F8
:100F0000309739F0A389B4899C918589809589238C
:100F10008C938091B9028E7F8093B9021092F50173
:100F20001092F4018BE992E09093F7018093F6011F
:100F3000E091AE02F091AF0280819091B002892BD6
:100F4000808342E150E06AE271E088EF91E00E9424
:100F50008D0042E050E06DE371E088EF91E00E9487
:100F60008D0080E0E82E80E0F82E8BE992E00E9470
:100F70008E02892B09F448C08BE992E00E948E0210
:100F8000892B09F441C08BE992E00E94A602898373
:100F90001A820091990210919A020F5F1F4FC801A7
:100FA0000E94CA02882399F02091950230919602FE
:100FB0008091990290919A02BE016F5F7F4F820FDC
:100FC000931F0E94840A10939A02009399020E9430
:100FD0009A014B015C010E949A01681979098A09FA
:100FE0009B09683E73408105910530F6F4CF9E3031
:100FF00040F42850310981E001C0880F2A95EAF7B2
:1010000069CF2E503109F7CFE114F10409F4ADCFC7
:101010000E94F700882309F4A8CF0E940000A5CF02
:101020008091950290919602009711F00E943509E7
:101030008CE191E090939C0280939B028091F60159
:101040009091F7018B59924071F4E091AE02F091CA
:10105000AF0290818091B0028095892380831092A5
:10106000F7011092F60108952F923F924F925F92EE
:101070006F927F928F929F92AF92BF92CF92DF92A8
:10108000EF92FF920F931F93CF93DF93CDB7DEB70D
:10109000CA1BDB0B0FB6F894DEBF0FBECDBF0994A1
:1010A0002A88398848885F846E847D848C849B84F8
:1010B000AA84B984C884DF80EE80FD800C811B8106
:1010C000AA81B981CE0FD11D0FB6F894DEBF0FBE35
:1010D000CDBFED01089597FB072E16F4009407D0BD
:1010E00077FD09D00E947F0807FC05D03EF490955B
:1010F00081959F4F0895709561957F4F0895AA1B24
:10110000BB1B51E107C0AA1FBB1FA617B70710F0F2
:10111000A61BB70B881F991F5A95A9F78095909524
:10112000BC01CD010895EE0FFF1F0590F491E02D55
:1011300009940F931F93CF93DF938230910510F49E
:1011400082E090E0E091BC02F091BD0230E020E04E
:10115000B0E0A0E0309799F42115310509F44AC0B8
:10116000281B390B24303105D8F58A819B81611504
:10117000710589F1FB0193838283FE0111C04081D7
:1011800051810281138148175907E0F04817590728
:1011900099F4109761F012960C93129713961C9382
:1011A0003296CF01DF91CF911F910F910895009357
:1011B000BC021093BD02F4CF2115310551F0421746
:1011C000530738F0A901DB019A01BD01DF01F801E5
:1011D000C1CFEF01F9CF9093BD028093BC02CDCF78
:1011E000FE01E20FF31F819391932250310939835D
:1011F0002883D7CF2091BA023091BB02232B41F430
:1012000020910201309103013093BB022093BA0276
:1012100020910001309101012115310541F42DB7D4
:101220003EB74091040150910501241B350BE0911C
:10123000BA02F091BB02E217F307A0F42E1B3F0B9A
:101240002817390778F0AC014E5F5F4F2417350738
:1012500048F04E0F5F1F5093BB024093BA02819338
:1012600091939FCFF0E0E0E09CCFCF93DF93009786
:10127000E9F0FC01329713821282A091BC02B09176
:10128000BD02ED0130E020E01097A1F42081318112
:10129000820F931F2091BA023091BB0228173907A1
:1012A00009F061C0F093BB02E093BA02DF91CF91E5
:1012B0000895EA01CE17DF07E8F54A815B819E01B8
:1012C00041155105B1F7E901FB83EA834991599131
:1012D000C40FD51FEC17FD0761F480819181029640
:1012E000840F951FE90199838883828193819B8371
:1012F0008A83F0E0E0E012968D919C91139700971D
:10130000B9F52D913C911197CD010296820F931F53
:101310002091BA023091BB022817390739F630976D
:1013200051F51092BD021092BC02B093BB02A09383
:10133000BA02BCCFD383C28340815181840F951FF1
:10134000C817D90761F44E5F5F4F88819981480FB4
:10135000591F518340838A819B8193838283211506
:10136000310509F0B0CFF093BD02E093BC029ECFEF
:10137000FD01DC01C0CF13821282D7CFB0E0A0E024
:10138000E4ECF9E00C9436088C01009751F4CB01A1
:101390000E9499088C01C801CDB7DEB7E0E10C943A
:1013A0005208FC01E60FF71F9C0122503109E21799
:1013B000F30708F49DC0D901CD91DC911197C617B0
:1013C000D70798F0C530D10530F3CE0104978617C2
:1013D000970708F3C61BD70B2297C193D1936D9340
:1013E0007C93CF010E943509D6CF5B01AC1ABD0AB0
:1013F0004C018C0E9D1EA091BC02B091BD02512CDF
:10140000412CF12CE12C109731F58091BA0290918A
:10141000BB028815990509F05CC04616570608F00E
:1014200058C08091000190910101009741F48DB75F
:101430009EB74091040150910501841B950BE8175C
:10144000F90708F055C0F093BB02E093BA02F90126
:1014500071836083A0CF8D919C91119712966C90AF
:10146000129713967C901397A815B90559F56C013E
:1014700042E0C40ED11CCA14DB0420F1AC014A19AD
:101480005B09DA011296159780F0628273825183AC
:101490004083D9016D937C93E114F10471F0D7017D
:1014A0001396FC93EE93129776CF22968C0F9D1F86
:1014B000F90191838083F301EFCFF093BD02E093B4
:1014C000BC0269CF4816590608F42C017D01D301EE
:1014D0009ACFCB010E9499087C01009749F0AE0198
:1014E000B8010E947B0AC8010E943509870153CFC9
:1014F00010E000E050CFFB01DC0102C001900D9232
:1015000041505040D8F70895FB01DC0101900D9245
:101510000020E1F7089510E0C2E6D0E004C0FE012B
:101520000E9493082196C336D107C9F7F894FFCFDC
:101530000000BE0280000000000023018D00BA0000
:101540007001EB00C900DD000000000032028D00D8
:10155000C702F0018E02A6021A02584245452052E7
:10156000656365697665722054657374000D0A00C1
:00000001FF
