:100000000C9463000C948B000C948B000C941305DF
:100010000C9413050C9413050C948B000C948B001A
:100020000C948B000C948B000C948B000C948B0024
:100030000C948B000C948B000C948B000C948B0014
:100040000C94AE030C948B000C947C030C9456031C
:100050000C948B000C948B000C948B000C948B00F4
:100060000C94F8030C948B0000000000240027007F
:100070002A0000000008000201000003040700003D
:1000800000000000000000000000230026002900FE
:1000900000000000250028002B00040404040404D0
:1000A0000404020202020202030303030303010227
:1000B00004081020408001020408102001020408F6
:1000C0001020D7053D0811241FBECFEFD8E0DEBFBA
:1000D000CDBF11E0A0E0B1E0ECE6F1E102C0059097
:1000E0000D92A434B107D9F722E0A4E4B1E001C035
:1000F0001D92AA3BB207E1F710E0C2E6D0E004C0CF
:100100002197FE010E94A308C136D107C9F70E94BA
:1001100082060C94A9080C940000AF92BF92CF9273
:10012000DF92EF92FF920F931F93CF93DF936C01B7
:100130007B018B01040F151FEB015E01AE18BF0898
:10014000C017D10759F06991D601ED91FC9101904A
:10015000F081E02DC6010995892B79F7C501DF9162
:10016000CF911F910F91FF90EF90DF90CF90BF90B4
:10017000AF900895CF93DF9390E0FC01E255FF4FDD
:10018000249186569F4FFC0184918823D1F090E002
:10019000880F991FFC01E859FF4FA591B491FC010C
:1001A000E057FF4FC591D49161110EC09FB7F894ED
:1001B0008C91E22FE0958E238C932881E223E883B3
:1001C0009FBFDF91CF9108958FB7F894EC91E22B08
:1001D000EC938FBFF6CFFC01538D448D252F30E07B
:1001E000842F90E0821B930B541710F0CF96089544
:1001F00001970895FC01918D828D981761F0A28D71
:10020000AE0FBF2FB11D5D968C91928D9F5F9F7336
:10021000928F90E008958FEF9FEF0895FC01918DEC
:10022000828D981731F0828DE80FF11D858D90E059
:1002300008958FEF9FEF0895FC01918D228D892FF6
:1002400090E0805C9F4F821B91098F7399270895DE
:100250008EEF91E00E941C0121E0892B09F420E03F
:10026000822F0895FC01A48DA80FB92FB11DA35AA8
:10027000BF4F2C91848D90E001968F739927848FC6
:10028000A689B7892C93A089B1898C9183708064E9
:100290008C93938D848D981306C00288F389E02D8A
:1002A00080818F7D80830895EF92FF920F931F933B
:1002B000CF93DF93EC0181E0888F9B8D8C8D981319
:1002C0001AC0E889F989808185FF15C09FB7F89425
:1002D000EE89FF896083E889F98980818370806471
:1002E00080839FBF81E090E0DF91CF911F910F91BC
:1002F000FF90EF900895F62E0B8D10E00F5F1F4FCB
:100300000F731127E02E8C8D8E110CC00FB607FCD9
:10031000FACFE889F989808185FFF5CFCE010E9467
:100320003201F1CFEB8DEC0FFD2FF11DE35AFF4FA2
:10033000F0829FB7F8940B8FEA89FB8980818062F5
:10034000CFCFCF93DF93EC01888D8823B9F0AA89B2
:10035000BB89E889F9898C9185FD03C0808186FD80
:100360000DC00FB607FCF7CF8C9185FFF2CF8081CF
:1003700085FFEDCFCE010E943201E9CFDF91CF9111
:10038000089580E090E0892B29F00E9428018111D6
:100390000C94000008953FB7F8948091F401909177
:1003A000F501A091F601B091F70126B5A89B05C013
:1003B0002F3F19F00196A11DB11D3FBFBA2FA92FE4
:1003C000982F8827BC01CD01620F711D811D911DE1
:1003D00042E0660F771F881F991F4A95D1F708954D
:1003E00085ED8093BC008091BC0084FDFCCF109211
:1003F000C90108952091A501260F3327331F21320B
:100400003105ECF42091C901FC0190E080E024303A
:1004100069F082E00895A091A5012191AC014B57AC
:100420005E4FA40FB52FB11D2C930196861798F33C
:100430008091A501680F6093A50180E0089581E097
:10044000089508958FEF9FEF08958FEF9FEF089520
:100450008091840190E09195819591090895CF93C1
:10046000DF93CB01EA01642F0E94FA01CE01DF91F4
:10047000CF910895CF93DF931F92CDB7DEB76983F5
:1004800061E0CE0101960E94FA0181E090E00F90B8
:10049000DF91CF9108952091FA013091FB01281747
:1004A000390771F49091F8018091F901981741F0A2
:1004B000E091F801F0E0EC5BFE4F808190E0089560
:1004C0008FEF9FEF0895EF92FF920F931F93CF93BB
:1004D000DF93DC015C96ED90FC905D97E114F104F4
:1004E00079F481E090E013969C938E93129790E0BC
:1004F00080E0DF91CF911F910F91FF90EF900895D1
:100500005196ED91FC91529750968C915097982F5F
:1005100090950FB75E962C915E97122F127021FD69
:100520006095F8942081112319F1282B2083E7018D
:100530002197F1F728E0462F50E0308160FF1AC084
:10054000382B3083E7012197F1F7BA01759567954C
:10055000215089F7112381F08081892380830FBF87
:100560005C968D919C910197F1F781E090E0C1CF6D
:100570002923DCCF3923E5CF9081892BEFCF209140
:10058000FA013091FB012817390771F48091F901C4
:100590002091F80190E0805C9F4F821B910960E4FC
:1005A00070E00E945908089590E080E0089520913D
:1005B000FA013091FB0128173907B9F49091F8013D
:1005C0008091F901981789F0E091F801F0E0EC5B77
:1005D000FE4F80812091F80130E02F5F3F4F2F7355
:1005E00033272093F80190E008958FEF9FEF08954F
:1005F00090E080E00895FB0101900020E9F7319739
:10060000AF01461B570BDC01ED91FC910280F38199
:10061000E02D09948F929F92AF92BF92EF92FF923A
:100620000F931F93CF93DF93CDB7DEB7A1970FB68C
:10063000F894DEBF0FBECDBF7C01FA01CB0119A239
:10064000223008F42AE08E010F5D1F4F822E912C7C
:10065000B12CA12CBF01A50194010E946D08F901E4
:10066000CA016A300CF5605DD8016E938D01232BB1
:10067000242B252B79F790E080E0109721F0BD0125
:10068000C7010E94FB02A1960FB6F894DEBF0FBE11
:10069000CDBFDF91CF911F910F91FF90EF90BF9051
:1006A000AF909F908F900895695CDECF1F920F925C
:1006B0000FB60F9211242F933F934F935F936F9335
:1006C0007F938F939F93AF93BF93EF93FF938EEF9F
:1006D00091E00E943201FF91EF91BF91AF919F9104
:1006E0008F917F916F915F914F913F912F910F90DB
:1006F0000FBE0F901F9018951F920F920FB60F927A
:1007000011242F938F939F93EF93FF93E0910E0209
:10071000F0910F028081E0911402F091150282FDA8
:100720001BC09081809117028F5F8F7320911802F8
:10073000821741F0E0911702F0E0E250FE4F958FF2
:1007400080931702FF91EF919F918F912F910F90BE
:100750000FBE0F901F9018958081F4CF1F920F92BB
:100760000FB60F9211242F933F938F939F93AF93C4
:10077000BF938091F0019091F101A091F201B091AD
:10078000F3013091EF0123E0230F2D3758F5019647
:10079000A11DB11D2093EF018093F0019093F10111
:1007A000A093F201B093F3018091F4019091F501CF
:1007B000A091F601B091F7010196A11DB11D8093A2
:1007C000F4019093F501A093F601B093F701BF9166
:1007D000AF919F918F913F912F910F900FBE0F90EE
:1007E0001F90189526E8230F0296A11DB11DD2CFA8
:1007F0001F920F920FB60F9211242F933F934F9396
:100800005F936F937F938F939F93AF93BF93EF9378
:10081000FF938091B900887F803609F44AC0F0F5D3
:10082000883209F4A5C018F5803109F499C0B8F4EC
:10083000882309F4F5C0883009F492C0FF91EF9144
:10084000BF91AF919F918F917F916F915F914F91E8
:100850003F912F910F900FBE0F901F9018958831E8
:1008600009F486C0803251F78093C80114C08034E7
:1008700009F49BC040F48033B9F38833F9F68093D0
:10088000C80185ECAEC0803509F483C0883509F411
:1008900094C0883499F60E94F001D0CF883909F4C9
:1008A0008AC038F5883729F050F4883611F080373F
:1008B00029F683E08093C9011092C70155C088389A
:1008C00009F479C0803919F0803809F0B7CF8091E8
:1008D000C701803208F06FC0E091C70181E08E0F40
:1008E0008093C7018091BB00F0E0E955FE4F808303
:1008F0003BC0803B39F0D0F4803A09F477C0883AA5
:1009000009F09CCF84E08093C9011092A601109257
:10091000A501F0E0E0E009958091A50181110FC0EB
:1009200081E08093A5011092850109C0803C09F403
:10093000A8CF883C09F4A5CF883B09F07FCFE09190
:10094000A60181E08E0F8093A601F0E0EB57FE4FE9
:1009500080818093BB009091A6018091A50129C060
:100960008091EE018093BB0085EC8093BC0066CF44
:100970009091ED018091EC01981758F5E091ED010F
:1009800081E08E0F8093ED01F0E0E453FE4F808113
:10099000E9CFE091ED0181E08E0F8093ED01809130
:1009A000BB00F0E0E453FE4F80839091ED01809115
:1009B000EC019817C8F285E8D8CFE091ED0181E00D
:1009C0008E0F8093ED018091BB00F0E0E453FE4F69
:1009D00080838091CB0181115ECF81E08093CA0139
:1009E00084EA8093BC001092C90128CF85EC8093E3
:1009F000BC001092C9018091C701803230F4E091AF
:100A0000C701F0E0E955FE4F10826091C70170E028
:100A100087EA91E0F0E0E0E009951092C7010ECF7F
:100A20001092C80138CF1F920F920FB60F92112467
:100A30002F933F934F935F936F937F938F939F93E6
:100A4000AF93BF93EF93FF93E091FA01F091FB0115
:100A5000309749F0A685B7858585968D91FF14C09E
:100A60009C918923A1F4FF91EF91BF91AF919F9148
:100A70008F917F916F915F914F913F912F910F9047
:100A80000FBE0F901F9018959C91892361F7A38941
:100A9000B4899C918589809589238C9386899789CF
:100AA0000197F1F7608D718DA685B785558538E082
:100AB00020E0CB010197F1F7822F90E09595879583
:100AC000282F4C91452309F02068315091F7868DED
:100AD00081FD20958091F90190E001968F7399270F
:100AE0003091F801381799F0A091F901B0E0AC5BB2
:100AF000BE4F2C938093F901828D938D0197F1F76E
:100B0000A389B4898C919589892B8C93ACCF868DE0
:100B10008160868FF1CF90E0FC01EE58FF4F249169
:100B2000FC01E255FF4F3491FC01E656FF4FE49182
:100B3000EE23C9F0222339F0233001F1A8F421304B
:100B400019F1223029F1F0E0EE0FFF1FE057FF4FBF
:100B5000A591B4918FB7F894EC91611126C03095AE
:100B60003E233C938FBF08952730A9F02830C9F069
:100B7000243049F7809180008F7D03C080918000F0
:100B80008F7780938000DFCF84B58F7784BDDBCFF4
:100B900084B58F7DFBCF8091B0008F778093B000BC
:100BA000D2CF8091B0008F7DF9CF3E2BDACF10925B
:100BB00001021092000288EE93E0A0E0B0E0809382
:100BC000020290930302A0930402B093050224E072
:100BD00031E03093FF012093FE0125EC30E03093AB
:100BE0000B0220930A0224EC30E030930D02209394
:100BF0000C0220EC30E030930F0220930E0221EC27
:100C000030E0309311022093100222EC30E0309358
:100C100013022093120226EC30E030931502209349
:100C200014021092170210921802109219021092D8
:100C30001A0210929E0210929D0280939F0290933E
:100C4000A002A093A102B093A20286E191E090934A
:100C50009C0280939B021092B2021092B1021092F9
:100C6000B4021092B3021092B6021092B502109222
:100C7000B8021092B7026091B9026E7F6D7F6093E7
:100C8000B9026695617081E068278BE00E948B0550
:100C900061E08BE00E94BA00E9EBF0E0E491E093C0
:100CA000AB02E5EAF0E0E491F0E0EE0FFF1FE05761
:100CB000FF4F859194919093AD028093AC0260E0D8
:100CC0008AE00E94BA008091B90281FD04C061E00F
:100CD0008AE00E948B058AE08093A702E8EBF0E0AF
:100CE000E491E093A802E4EAF0E0E491F0E0EE0F92
:100CF000FF1FEA57FF4F859194919093AA0280932A
:100D0000A9020895789484B5826084BD84B5816019
:100D100084BD85B5826085BD85B5816085BD8091C6
:100D20006E00816080936E0010928100809181003E
:100D30008260809381008091810081608093810036
:100D4000809180008160809380008091B1008460F8
:100D50008093B1008091B00081608093B000809159
:100D60007A00846080937A0080917A008260809318
:100D70007A0080917A00816080937A0080917A0075
:100D8000806880937A001092C100E0910E02F09189
:100D90000F0282E08083E0910A02F0910B02108240
:100DA000E0910C02F0910D028FEC808310921602FC
:100DB000E0911202F091130286E08083E09110022C
:100DC000F0911102808180618083E0911002F091A6
:100DD0001102808188608083E0911002F0911102FD
:100DE000808180688083E0911002F09111028081FF
:100DF0008F7D80831092B6021092B5021092B402D9
:100E00001092B3021092B2021092B1028DE991E0F9
:100E10009093B8028093B7029091A702963108F0A0
:100E200047C02DEB30E03093B2022093B1022BE9A2
:100E300031E03093B4022093B3022CE231E03093DE
:100E4000B6022093B5022091680084E0983048F003
:100E500031E09E3008F430E081E001C0880F3A951F
:100E6000EAF7822B809368002DE630E0983050F04E
:100E70002BE630E09E3030F02CE630E0963110F07A
:100E800030E020E03093AF022093AE02292F30E013
:100E9000983008F0E5C081E001C0880F9A95EAF724
:100EA0008093B0028091B7029091B8020197F1F758
:100EB0008091B5029091B602892B49F1E091FA0137
:100EC000F091FB0122E0EB39F20709F1309739F09C
:100ED000A389B4899C918589809589238C9380917D
:100EE000B9028E7F8093B9021092F9011092F80135
:100EF0008BE992E09093FB018093FA01E091AE02BE
:100F0000F091AF0280819091B002892B808360E0E4
:100F10008EE00E94BA0064E271E08EEF91E00E94E0
:100F2000FB026EE271E08EEF91E00E94FB0210E4A2
:100F3000C0E0D0E010937C0080917A0080648093C0
:100F40007A0080917A0086FDFCCF909178008091A4
:100F500079008927982789279093FD018093FC01C8
:100F60006C01092E000CEE08FF082AE0B701A6016B
:100F700097FF0DC06DE28BE992E00E946302442767
:100F80005527BA014C195D096E097F092AE08BE9E2
:100F900092E00E940A036EE271E08BE992E00E9407
:100FA000FB0261E371E08EEF91E00E94FB026EE2D2
:100FB00071E08EEF91E00E94FB02C090FC01D090A6
:100FC000FD010D2C000CEE08FF082AE0B701A60178
:100FD000F7FE0DC06DE28EEF91E00E9454014427B0
:100FE0005527BA014C195D096E097F092AE08EEF79
:100FF00091E00E940A036EE271E08EEF91E00E94A0
:10100000FB020E94CB014B015C0188ECC82ED12C65
:10101000E12CF12C0E94CB01681979098A099B09FE
:10102000683E734081059105A8F381E0C81AD10894
:10103000E108F10828EE820E23E0921EA11CB11CEB
:10104000C114D104E104F10429F7209709F472CF07
:101050000E942801882309F46DCF0E9400006ACF06
:101060009E3040F42850310981E001C0880F2A9554
:10107000EAF716CF2E503109F7CF86E191E0909331
:101080009C0280939B028091FA019091FB018B5905
:10109000924071F4E091AE02F091AF0290818091A4
:1010A000B0028095892380831092FB011092FA018F
:1010B000089597FB072E16F4009407D077FD09D00A
:1010C0000E948F0807FC05D03EF4909581959F4FB4
:1010D0000895709561957F4F0895A1E21A2EAA1B7D
:1010E000BB1BFD010DC0AA1FBB1FEE1FFF1FA217D8
:1010F000B307E407F50720F0A21BB30BE40BF50BD5
:10110000661F771F881F991F1A9469F7609570955D
:10111000809590959B01AC01BD01CF010895AA1B5C
:10112000BB1B51E107C0AA1FBB1FA617B70710F0D2
:10113000A61BB70B881F991F5A95A9F78095909504
:10114000BC01CD010895EE0FFF1F0590F491E02D35
:10115000099410E0C2E6D0E004C0FE010E94A3089A
:0C1160002196C336D107C9F7F894FFCFE1
:10116C000000000054018D00EB00A1011C01FA00ED
:10117C000E010000000063028D00F8022102BF0284
:10118C00D7024B02584245452074657374000D0A12
:10119C0000446174612053656E7420746F20584252
:0411AC0045450000B5
:00000001FF
