:100000000C9463000C948B000C948B000C947B0379
:100010000C947B030C947B030C948B000C948B004E
:100020000C948B000C948B000C948B000C948B0024
:100030000C948B000C948B000C948B000C948B0014
:100040000C9431030C948B000C94FF020C94D90295
:100050000C948B000C948B000C948B000C948B00F4
:100060000C94F3030C948B000000000800020100C4
:100070000003040700000000000000000000000072
:1000800023002600290000000000240027002A0089
:1000900000000000250028002B00040404040404D0
:1000A0000404020202020202030303030303010227
:1000B00004081020408001020408102001020408F6
:1000C00010205A059D0711241FBECFEFD8E0DEBFD8
:1000D000CDBF11E0A0E0B1E0E8EEFFE002C0059086
:1000E0000D92A434B107D9F722E0A4E4B1E001C035
:1000F0001D92A83BB207E1F710E0C2E6D0E004C0D1
:100100002197FE010E94E107C136D107C9F70E947D
:1001100043060C94E7070C940000AF92BF92CF9275
:10012000DF92EF92FF920F931F93CF93DF936C01B7
:100130007B018B01040F151FEB015E01AE18BF0898
:10014000C017D10759F06991D601ED91FC9101904A
:10015000F081E02DC6010995892B79F7C501DF9162
:10016000CF911F910F91FF90EF90DF90CF90BF90B4
:10017000AF900895FC01538D448D252F30E0842FDE
:1001800090E0821B930B541710F0CF9608950197BF
:100190000895FC01918D828D981761F0A28DAE0FAC
:1001A000BF2FB11D5D968C91928D9F5F9F73928F33
:1001B00090E008958FEF9FEF0895FC01918D828D5F
:1001C000981731F0828DE80FF11D858D90E008952C
:1001D0008FEF9FEF0895FC01918D228D892F90E084
:1001E000805C9F4F821B91098F73992708958CEF34
:1001F00091E00E94EB0021E0892B09F420E0822F9E
:100200000895FC01A48DA80FB92FB11DA35ABF4FAB
:100210002C91848D90E001968F739927848FA68905
:10022000B7892C93A089B1898C91837080648C9359
:10023000938D848D981306C00288F389E02D808108
:100240008F7D80830895EF92FF920F931F93CF933A
:10025000DF93EC0181E0888F9B8D8C8D98131AC001
:10026000E889F989808185FF15C09FB7F894EE89E8
:10027000FF896083E889F989808183708064808345
:100280009FBF81E090E0DF91CF911F910F91FF9090
:10029000EF900895F62E0B8D10E00F5F1F4F0F7338
:1002A0001127E02E8C8D8E110CC00FB607FCFACFF3
:1002B000E889F989808185FFF5CFCE010E9401018F
:1002C000F1CFEB8DEC0FFD2FF11DE35AFF4FF082C4
:1002D0009FB7F8940B8FEA89FB8980818062CFCF2A
:1002E000CF93DF93EC01888D8823B9F0AA89BB896D
:1002F000E889F9898C9185FD03C0808186FD0DC058
:100300000FB607FCF7CF8C9185FFF2CF808185FF78
:10031000EDCFCE010E940101E9CFDF91CF91089589
:1003200080E090E0892B29F00E94F70081110C9465
:10033000000008953FB7F8948091F4019091F50181
:10034000A091F601B091F70126B5A89B05C02F3FFB
:1003500019F00196A11DB11D3FBFBA2FA92F982FEB
:100360008827BC01CD01620F711D811D911D42E0E6
:10037000660F771F881F991F4A95D1F7089520911E
:10038000FA013091FB012817390771F49091F801B7
:100390008091F901981741F0E091F801F0E0E15502
:1003A000FE4F808190E008958FEF9FEF08950895AC
:1003B000EF92FF920F931F93CF93DF93DC015C9634
:1003C000ED90FC905D97E114F10479F481E090E008
:1003D00013969C938E93129790E080E0DF91CF91DB
:1003E0001F910F91FF90EF9008955196ED91FC9120
:1003F000529750968C915097982F90950FB75E9684
:100400002C915E97122F127021FD6095F894208137
:10041000112319F1282B2083E7012197F1F728E018
:10042000462F50E0308160FF1AC0382B3083E7013F
:100430002197F1F7BA0175956795215089F7112336
:1004400081F08081892380830FBF5C968D919C9180
:100450000197F1F781E090E0C1CF2923DCCF392368
:10046000E5CF9081892BEFCF2091FA013091FB01EC
:100470002817390771F48091F9012091F80190E073
:10048000805C9F4F821B910960E470E00E94B90775
:10049000089590E080E008952091FA013091FB01E9
:1004A00028173907B9F49091F8018091F90198174C
:1004B00089F0E091F801F0E0E155FE4F8081209154
:1004C000F80130E02F5F3F4F2F7333272093F8015F
:1004D00090E008958FEF9FEF089585ED8093BC0025
:1004E0008091BC0084FDFCCF109289010895209179
:1004F0006501260F3327331F21323105ECF420919B
:100500008901FC0190E080E0243069F082E00895E8
:10051000A09165012191AC014B5B5E4FA40FB52FFB
:10052000B11D2C930196861798F380916501680F91
:100530006093650180E0089581E008958FEF9FEF5B
:1005400008958FEF9FEF08958091440190E0919579
:10055000819591090895CF93DF93CB01EA01642F30
:100560000E947702CE01DF91CF910895CF93DF9360
:100570001F92CDB7DEB7698361E0CE0101960E947C
:10058000770281E090E00F90DF91CF91089590E0A5
:1005900080E00895FB0101900020E9F73197AF0159
:1005A000461B570BDC01ED91FC910280F381E02D9D
:1005B00009941F920F920FB60F9211242F933F931D
:1005C0004F935F936F937F938F939F93AF93BF935B
:1005D000EF93FF938CEF91E00E940101FF91EF9167
:1005E000BF91AF919F918F917F916F915F914F914B
:1005F0003F912F910F900FBE0F901F9018951F9253
:100600000F920FB60F9211242F938F939F93EF9316
:10061000FF93E0910C02F0910D028081E0911202B3
:10062000F091130282FD1BC09081809115028F5FB3
:100630008F7320911602821741F0E0911502F0E0CD
:10064000E450FE4F958F80931502FF91EF919F919B
:100650008F912F910F900FBE0F901F901895808152
:10066000F4CF1F920F920FB60F9211242F933F9346
:100670008F939F93AF93BF938091F0019091F1017D
:10068000A091F201B091F3013091EF0123E0230F2B
:100690002D3758F50196A11DB11D2093EF018093D0
:1006A000F0019093F101A093F201B093F3018091D6
:1006B000F4019091F501A091F601B091F701019636
:1006C000A11DB11D8093F4019093F501A093F60153
:1006D000B093F701BF91AF919F918F913F912F916F
:1006E0000F900FBE0F901F90189526E8230F0296CB
:1006F000A11DB11DD2CF1F920F920FB60F921124E0
:100700002F933F934F935F936F937F938F939F9319
:10071000AF93BF93EF93FF93E091FA01F091FB0148
:10072000309749F0A685B7858585968D91FF14C0D1
:100730009C918923A1F4FF91EF91BF91AF919F917B
:100740008F917F916F915F914F913F912F910F907A
:100750000FBE0F901F9018959C91892361F7A38974
:10076000B4899C918589809589238C938689978902
:100770000197F1F7608D718DA685B785558538E0B5
:1007800020E0CB010197F1F7822F90E095958795B6
:10079000282F4C91452309F02068315091F7868D20
:1007A00081FD20958091F90190E001968F73992742
:1007B0003091F801381799F0A091F901B0E0A155F6
:1007C000BE4F2C938093F901828D938D0197F1F7A1
:1007D000A389B4898C919589892B8C93ACCF868D14
:1007E0008160868FF1CF1F920F920FB60F92112466
:1007F0002F933F934F935F936F937F938F939F9329
:10080000AF93BF93EF93FF938091B900887F8036B9
:1008100009F44AC0F0F5883209F4A5C018F5803112
:1008200009F499C0B8F4882309F4F5C0883009F4B4
:1008300092C0FF91EF91BF91AF919F918F917F9166
:100840006F915F914F913F912F910F900FBE0F903D
:100850001F901895883109F486C0803251F7809333
:10086000880114C0803409F49BC040F48033B9F38C
:100870008833F9F68093880185ECAEC0803509F4A1
:1008800083C0883509F494C0883499F60E946D02BB
:10089000D0CF883909F48AC038F5883729F050F468
:1008A000883611F0803729F683E080938901109211
:1008B000870155C0883809F479C0803919F080382B
:1008C00009F0B7CF80918701803208F06FC0E091C6
:1008D000870181E08E0F809387018091BB00F0E05B
:1008E000E959FE4F80833BC0803B39F0D0F4803A19
:1008F00009F477C0883A09F09CCF84E0809389019D
:100900001092660110926501F0E0E0E00995809197
:10091000650181110FC081E080936501109245014E
:1009200009C0803C09F4A8CF883C09F4A5CF883BD6
:1009300009F07FCFE091660181E08E0F8093660120
:10094000F0E0EB5BFE4F80818093BB0090916601ED
:100950008091650129C08091AE018093BB0085EC38
:100960008093BC0066CF9091AD018091AC01981747
:1009700058F5E091AD0181E08E0F8093AD01F0E07C
:10098000E457FE4F8081E9CFE091AD0181E08E0F09
:100990008093AD018091BB00F0E0E457FE4F80836F
:1009A0009091AD018091AC019817C8F285E8D8CF3D
:1009B000E091AD0181E08E0F8093AD018091BB008D
:1009C000F0E0E457FE4F808380918B0181115ECF70
:1009D00081E080938A0184EA8093BC0010928901AF
:1009E00028CF85EC8093BC0010928901809187010B
:1009F000803230F4E0918701F0E0E959FE4F108237
:100A00006091870170E087E691E0F0E0E0E0099511
:100A1000109287010ECF1092880138CF90E0FC0130
:100A2000E859FF4F2491FC01E255FF4F3491FC013E
:100A3000E656FF4FE491EE23C9F0222339F023302C
:100A400001F1A8F4213019F1223029F1F0E0EE0F84
:100A5000FF1FE057FF4FA591B4918FB7F894EC9129
:100A6000611126C030953E233C938FBF08952730F7
:100A7000A9F02830C9F0243049F7809180008F7D9B
:100A800003C0809180008F7780938000DFCF84B592
:100A90008F7784BDDBCF84B58F7DFBCF8091B00095
:100AA0008F778093B000D2CF8091B0008F7DF9CF47
:100AB0003E2BDACF0F931F93CF93DF931092FF015A
:100AC0001092FE0188EE93E0A0E0B0E08093000277
:100AD00090930102A0930202B093030224E031E05C
:100AE0003093FD012093FC0125EC30E030930902A6
:100AF0002093080224EC30E030930B0220930A028A
:100B000020EC30E030930D0220930C0221EC30E019
:100B100030930F0220930E0222EC30E0309311024A
:100B20002093100226EC30E030931302209312023F
:100B300010921502109216021092170210921802CB
:100B400010929C0210929B0280939D0290939E02B1
:100B5000A0939F02B093A00286E191E090939A0245
:100B6000809399021092B0021092AF021092B202DA
:100B70001092B1021092B4021092B3021092B60217
:100B80001092B5026091B7026E7F6D7F6093B702DD
:100B90006695617081E068278BE00E940E0549EB45
:100BA00050E0FA01649185EA90E0FC01249122234F
:100BB00099F030E0220F331FF901EA57FF4FA5915A
:100BC000B491F901E057FF4F259134912FB7F89474
:100BD0003C91632B6C932FBFFA0144914093A9027F
:100BE000FC018491E82FF0E0EE0FFF1FE057FF4F6C
:100BF000859194919093AB028093AA0208EB10E048
:100C0000F8012491C4EAD0E0FE0184918823C9F060
:100C100090E0880F991FFC01EA57FF4FA591B4910E
:100C2000FC01E057FF4F459154913FB7F8949C91D8
:100C3000822F809598239C93FA0190818923808349
:100C40003FBF8091B70281FD04C061E08AE00E944D
:100C50000E058AE08093A502F80104910093A60294
:100C6000FE01C491EC2FF0E0EE0FFF1FE458FF4FA0
:100C7000859194919093A8028093A702DF91CF91E0
:100C80001F910F910895789484B5826084BD84B5D6
:100C9000816084BD85B5826085BD85B5816085BD77
:100CA00080916E00816080936E001092810080912F
:100CB00081008260809381008091810081608093B7
:100CC0008100809180008160809380008091B100DC
:100CD00084608093B1008091B00081608093B00007
:100CE00080917A00846080937A0080917A0082609B
:100CF00080937A0080917A00816080937A0080915D
:100D00007A00806880937A001092C100E0910C0212
:100D1000F0910D0282E08083E0910802F0910902D7
:100D20001082E0910A02F0910B028FEC8083109206
:100D30001402E0911002F091110286E08083E091AC
:100D40000E02F0910F02808180618083E0910E029B
:100D5000F0910F02808188608083E0910E02F09113
:100D60000F02808180688083E0910E02F0910F0273
:100D700080818F7D80831092B4021092B302109212
:100D8000B2021092B1021092B0021092AF028DE93D
:100D900091E09093B6028093B5029091A5029631AE
:100DA00008F047C02DEB30E03093B0022093AF0243
:100DB0002BE931E03093B2022093B1022CE231E012
:100DC0003093B4022093B3022091680084E09830FD
:100DD00048F031E09E3008F430E081E001C0880F37
:100DE0003A95EAF7822B809368002DE630E0983040
:100DF00050F02BE630E09E3030F02CE630E09631BB
:100E000010F030E020E03093AD022093AC02292FA7
:100E100030E0983008F084C081E001C0880F9A95D6
:100E2000EAF78093AE028091B5029091B6020197E5
:100E3000F1F78091B3029091B402892B49F1E091CE
:100E4000FA01F091FB0122E0E939F20709F130974C
:100E500039F0A389B4899C918589809589238C93E5
:100E60008091B7028E7F8093B7021092F9011092A1
:100E7000F80189E992E09093FB018093FA01E091F7
:100E8000AC02F091AD0280819091AE02892B8083FB
:100E900064E271E08CEF91E00E94CA026AE371E0C3
:100EA0008CEF91E00E94CA02C0E0D0E06DE371E0F7
:100EB00089E992E00E94CA026AE371E089E992E05E
:100EC0000E94CA020E949A014B015C0180EDC82E6B
:100ED00087E0D82EE12CF12C0E949A01681979093B
:100EE0008A099B09683E734081059105A8F381E05A
:100EF000C81AD108E108F10828EE820E23E0921EFC
:100F0000A11CB11CC114D104E104F10429F72097FC
:100F100069F20E94F700882349F20E940000C6CFC0
:100F20009E3040F42850310981E001C0880F2A9595
:100F3000EAF777CF2E503109F7CF86E191E0909311
:100F40009A02809399028091FA019091FB0189594C
:100F5000924071F4E091AC02F091AD0290818091E9
:100F6000AE028095892380831092FB011092FA01D2
:100F7000089597FB072E16F4009407D077FD09D04B
:100F80000E94CD0707FC05D03EF4909581959F4FB8
:100F90000895709561957F4F0895AA1BBB1B51E181
:100FA00007C0AA1FBB1FA617B70710F0A61BB70BD9
:100FB000881F991F5A95A9F780959095BC01CD017E
:100FC0000895EE0FFF1F0590F491E02D099410E0B5
:100FD000C2E6D0E004C0FE010E94E1072196C336BC
:080FE000D107C9F7F894FFCF17
:100FE8000000000023018D00BA007001EB00C90069
:100FF800DD0000000000D8018D00C702D7013402CF
:101008004C02BF0158424545205472616E736D69A8
:10101800747465722054657374000D0A0048454C59
:041028004C4F000029
:00000001FF
