:100000000C9463000C948B000C948B000C94C4052E
:100010000C94C4050C94C4050C948B000C948B00B8
:100020000C948B000C948B000C948B000C948B0024
:100030000C948B000C948B000C948B000C948B0014
:100040000C945F040C948B000C942D040C94070406
:100050000C948B000C948B000C948B000C948B00F4
:100060000C94A9040C948B000000000024002700CD
:100070002A0000000008000201000003040700003D
:1000800000000000000000000000230026002900FE
:1000900000000000250028002B00040404040404D0
:1000A0000404020202020202030303030303010227
:1000B00004081020408001020408102001020408F6
:1000C00010208806380911241FBECFEFD8E0DEBF0C
:1000D000CDBF22E0ACE5B1E001C01D92A03EB20769
:1000E000E1F711E0A0E0B1E0E2EEF7E102C0059037
:1000F0000D92AC35B107D9F710E0C2E6D0E004C0EC
:100100002197FE010E94EC09C136D107C9F70E9470
:1001100046070C94E40B0C940000AF92BF92CF9270
:10012000DF92EF92FF920F931F93CF93DF936C01B7
:100130007B018B01040F151FEB015E01AE18BF0898
:10014000C017D10759F06991D601ED91FC9101904A
:10015000F081E02DC6010995892B79F7C501DF9162
:10016000CF911F910F91FF90EF90DF90CF90BF90B4
:10017000AF900895CF93DF9390E0FC01E255FF4FDD
:10018000249186569F4FFC0184918823D1F090E002
:10019000880F991FFC01E859FF4FA591B491FC010C
:1001A000E057FF4FC591D49161110EC09FB7F894ED
:1001B0008C91E22FE0958E238C932881E223E883B3
:1001C0009FBFDF91CF9108958FB7F894EC91E22B08
:1001D000EC938FBFF6CFFC01538D448D252F30E07B
:1001E000842F90E0821B930B541710F0CF96089544
:1001F00001970895FC01918D828D981761F0A28D71
:10020000AE0FBF2FB11D5D968C91928D9F5F9F7336
:10021000928F90E008958FEF9FEF0895FC01918DEC
:10022000828D981731F0828DE80FF11D858D90E059
:1002300008958FEF9FEF0895FC01918D228D892FF6
:1002400090E0805C9F4F821B91098F7399270895DE
:100250008AE192E00E941C0121E0892B09F420E050
:10026000822F0895FC01A48DA80FB92FB11DA35AA8
:10027000BF4F2C91848D90E001968F739927848FC6
:10028000A689B7892C93A089B1898C9183708064E9
:100290008C93938D848D981306C00288F389E02D8A
:1002A00080818F7D80830895EF92FF920F931F933B
:1002B000CF93DF93EC0181E0888F9B8D8C8D981319
:1002C0001AC0E889F989808185FF15C09FB7F89425
:1002D000EE89FF896083E889F98980818370806471
:1002E00080839FBF81E090E0DF91CF911F910F91BC
:1002F000FF90EF900895F62E0B8D10E00F5F1F4FCB
:100300000F731127E02E8C8D8E110CC00FB607FCD9
:10031000FACFE889F989808185FFF5CFCE010E9467
:100320003201F1CFEB8DEC0FFD2FF11DE35AFF4FA2
:10033000F0829FB7F8940B8FEA89FB8980818062F5
:10034000CFCFCF93DF93EC01888D8823B9F0AA89B2
:10035000BB89E889F9898C9185FD03C0808186FD80
:100360000DC00FB607FCF7CF8C9185FFF2CF8081CF
:1003700085FFEDCFCE010E943201E9CFDF91CF9111
:10038000089580E090E0892B29F00E9428018111D6
:100390000C94000008958E50806480937C008091BE
:1003A0007A00806480937A0080917A0086FDFCCF89
:1003B000809178009091790008953FB7F8948091EA
:1003C0000C0290910D02A0910E02B0910F0226B581
:1003D000A89B05C02F3F19F00196A11DB11D3FBF7D
:1003E000BA2FA92F982F8827BC01CD01620F711D4C
:1003F000811D911D42E0660F771F881F991F4A9546
:10040000D1F7089585ED8093BC008091BC0084FDF8
:10041000FCCF1092E10108952091BD01260F3327F2
:10042000331F21323105ECF42091E101FC0190E011
:1004300080E0243069F082E00895A091BD0121910F
:10044000AC0143565E4FA40FB52FB11D2C930196FE
:10045000861798F38091BD01680F6093BD0180E01D
:10046000089581E0089508958FEF9FEF08958FEF2D
:100470009FEF089580919C0190E09195819591095D
:100480000895CF93DF93CB01EA01642F0E940C0201
:10049000CE01DF91CF910895CF93DF931F92CDB717
:1004A000DEB7698361E0CE0101960E940C0281E013
:1004B00090E00F90DF91CF9108952091120230913A
:1004C00013022817390771F49091100280911102DC
:1004D000981741F0E0911002F0E0E45AFE4F80815D
:1004E00090E008958FEF9FEF0895EF92FF920F93A2
:1004F0001F93CF93DF93DC015C96ED90FC905D97AA
:10050000E114F10479F481E090E013969C938E93CA
:10051000129790E080E0DF91CF911F910F91FF90B3
:10052000EF9008955196ED91FC91529750968C91D1
:100530005097982F90950FB75E962C915E97122F3B
:10054000127021FD6095F8942081112319F1282B58
:100550002083E7012197F1F728E0462F50E0308112
:1005600060FF1AC0382B3083E7012197F1F7BA01F9
:1005700075956795215089F7112381F08081892332
:1005800080830FBF5C968D919C910197F1F781E07C
:1005900090E0C1CF2923DCCF3923E5CF9081892B8F
:1005A000EFCF20911202309113022817390771F40E
:1005B000809111022091100290E0805C9F4F821B7D
:1005C000910960E470E00E94C409089590E080E021
:1005D0000895209112023091130228173907B9F4B7
:1005E0009091100280911102981789F0E091100209
:1005F000F0E0E45AFE4F80812091100230E02F5F3E
:100600003F4F2F7333272093100290E008958FEF10
:100610009FEF089590E080E00895FB010190002095
:10062000E9F73197AF01461B570BDC01ED91FC91C7
:100630000280F381E02D09940F931F93CF93DF93F2
:10064000EC01E7EBF2E04481558160817181E88142
:10065000F9810280F381E02D09958C016AE271E055
:10066000CE010E940D03800F911FDF91CF911F914A
:100670000F910895FC0180819181009711F00C94F5
:100680008E0A08950F931F93CF93DF93EC01888117
:100690009981009759F02A813B812617370730F05E
:1006A00081E0DF91CF911F910F9108958B016F5FD2
:1006B0007F4F0E94170B009759F0998388831B8303
:1006C0000A832C813D81232B59F7FC011082E8CF4E
:1006D00080E0E7CF0F931F93CF93DF93009731F420
:1006E00080E0DF91CF911F910F9108956115710501
:1006F000F9F08C01C091BB02D091BC02C60FD71F8C
:10070000BE0187EB92E00E944203882349F32091C7
:10071000B7023091B8028091BB029091BC02B8013F
:10072000820F931F0E94DD0BD093BC02C093BB02CB
:1007300081E0D7CFFC0101900020E9F73197BF019C
:10074000681B790B0C946A03EF92FF920F931F932F
:10075000CF93DF93EC017B018A01BA010E9442032F
:1007600028813981811114C02115310519F0C90181
:100770000E948E0A198218821D821C821B821A8294
:10078000CE01DF91CF911F910F91FF90EF900895CF
:100790001D830C83B701C9010E94DD0BF1CFEF92DD
:1007A000FF920F931F93CF93DF93CDB7DEB762977E
:1007B0000FB6F894DEBF0FBECDBF8C01CB01F801A0
:1007C0001182108213821282158214824AE09E01E5
:1007D0002F5F3F4F7901B9010E945809F70101903D
:1007E0000020E9F73197AF014E195F09B701C80141
:1007F0000E94A40362960FB6F894DEBF0FBECDBF71
:10080000DF91CF911F910F91FF90EF9008951F926C
:100810000F920FB60F9211242F933F934F935F9334
:100820006F937F938F939F93AF93BF93EF93FF93B8
:100830008AE192E00E943201FF91EF91BF91AF9166
:100840009F918F917F916F915F914F913F912F91E8
:100850000F900FBE0F901F9018951F920F920FB61A
:100860000F9211242F938F939F93EF93FF93E09117
:100870002A02F0912B028081E0913002F091310246
:1008800082FD1BC09081809133028F5F8F73209116
:100890003402821741F0E0913302F0E0E65EFD4F52
:1008A000958F80933302FF91EF919F918F912F91BC
:1008B0000F900FBE0F901F9018958081F4CF1F925C
:1008C0000F920FB60F9211242F933F938F939F9304
:1008D000AF93BF938091080290910902A0910A0200
:1008E000B0910B023091070223E0230F2D3758F50A
:1008F0000196A11DB11D20930702809308029093D9
:100900000902A0930A02B0930B0280910C0290910D
:100910000D02A0910E02B0910F020196A11DB11D12
:1009200080930C0290930D02A0930E02B0930F02DD
:10093000BF91AF919F918F913F912F910F900FBEDB
:100940000F901F90189526E8230F0296A11DB11D48
:10095000D2CF1F920F920FB60F9211242F933F9375
:100960004F935F936F937F938F939F93AF93BF93B7
:10097000EF93FF938091B900887F803609F44AC0D5
:10098000F0F5883209F4A5C018F5803109F499C052
:10099000B8F4882309F4F5C0883009F492C0FF91B7
:1009A000EF91BF91AF919F918F917F916F915F91E7
:1009B0004F913F912F910F900FBE0F901F90189560
:1009C000883109F486C0803251F78093E00114C069
:1009D000803409F49BC040F48033B9F38833F9F6CE
:1009E0008093E00185ECAEC0803509F483C0883582
:1009F00009F494C0883499F60E940202D0CF883955
:100A000009F48AC038F5883729F050F4883611F097
:100A1000803729F683E08093E1011092DF0155C011
:100A2000883809F479C0803919F0803809F0B7CFD7
:100A30008091DF01803208F06FC0E091DF0181E03A
:100A40008E0F8093DF018091BB00F0E0E154FE4FF8
:100A500080833BC0803B39F0D0F4803A09F477C002
:100A6000883A09F09CCF84E08093E1011092BE01A6
:100A70001092BD01F0E0E0E009958091BD01811187
:100A80000FC081E08093BD0110929D0109C0803CA0
:100A900009F4A8CF883C09F4A5CF883B09F07FCFA3
:100AA000E091BE0181E08E0F8093BE01F0E0E3563D
:100AB000FE4F80818093BB009091BE018091BD016B
:100AC00029C0809106028093BB0085EC8093BC0016
:100AD00066CF9091050280910402981758F5E09135
:100AE000050281E08E0F80930502F0E0EC51FE4F8D
:100AF0008081E9CFE091050281E08E0F80930502AD
:100B00008091BB00F0E0EC51FE4F80839091050294
:100B1000809104029817C8F285E8D8CFE0910502C9
:100B200081E08E0F809305028091BB00F0E0EC51D4
:100B3000FE4F80838091E30181115ECF81E080933D
:100B4000E20184EA8093BC001092E10128CF85EC99
:100B50008093BC001092E1018091DF01803230F47B
:100B6000E091DF01F0E0E154FE4F10826091DF017F
:100B700070E08FEB91E0F0E0E0E009951092DF018A
:100B80000ECF1092E00138CF1F920F920FB60F9246
:100B900011242F933F934F935F936F937F938F9382
:100BA0009F93AF93BF93EF93FF93E0911202F09165
:100BB0001302309749F0A685B7858585968D91FFFC
:100BC00014C09C918923A1F4FF91EF91BF91AF9143
:100BD0009F918F917F916F915F914F913F912F9155
:100BE0000F900FBE0F901F9018959C91892361F76D
:100BF000A389B4899C918589809589238C93868962
:100C000097890197F1F7608D718DA685B785558518
:100C100038E020E0CB010197F1F7822F90E0959525
:100C20008795282F4C91452309F02068315091F782
:100C3000868D81FD20958091110290E001968F7341
:100C4000992730911002381799F0A0911102B0E065
:100C5000A45ABE4F2C9380931102828D938D0197DD
:100C6000F1F7A389B4898C919589892B8C93ACCFAA
:100C7000868D8160868FF1CF90E0FC01EE58FF4FAA
:100C80002491FC01E255FF4F3491FC01E656FF4FE1
:100C9000E491EE23C9F0222339F0233001F1A8F4C6
:100CA000213019F1223029F1F0E0EE0FFF1FE0575B
:100CB000FF4FA591B4918FB7F894EC91611126C0C4
:100CC00030953E233C938FBF08952730A9F02830FC
:100CD000C9F0243049F7809180008F7D03C0809156
:100CE00080008F7780938000DFCF84B58F7784BDBD
:100CF000DBCF84B58F7DFBCF8091B0008F77809361
:100D0000B000D2CF8091B0008F7DF9CF3E2BDACFEB
:100D100010921D0210921C0288EE93E0A0E0B0E059
:100D200080931E0290931F02A0932002B093210291
:100D30002AE031E030931B0220931A0225EC30E0C8
:100D4000309327022093260224EC30E030932902CE
:100D50002093280220EC30E030932B0220932A02CB
:100D600021EC30E030932D0220932C0222EC30E075
:100D700030932F0220932E0226EC30E03093310284
:100D800020933002109233021092340210923502F6
:100D9000109236021092C0021092BF028093C102DC
:100DA0009093C202A093C302B093C4028CE191E07D
:100DB0009093BE028093BD021092D4021092D3028F
:100DC0001092D6021092D5021092D8021092D70239
:100DD0001092DA021092D9026091DB026E7F6D7F71
:100DE0006093DB026695617081E068278BE00E946A
:100DF0003C0661E08BE00E94BA00E9EBF0E0E49190
:100E0000E093CD02E5EAF0E0E491F0E0EE0FFF1FA1
:100E1000E057FF4F859194919093CF028093CE023B
:100E200060E08AE00E94BA008091DB0281FD04C08C
:100E300061E08AE00E943C068AE08093C902E8EB08
:100E4000F0E0E491E093CA02E4EAF0E0E491F0E03B
:100E5000EE0FFF1FEA57FF4F859194919093CC02BC
:100E60008093CB021092B8021092B7021092BA028D
:100E70001092B9021092BC021092BB0250E040E006
:100E80006CE271E087EB92E00C94A403CF93DF93C4
:100E900000D000D000D0CDB7DEB7789484B58260A2
:100EA00084BD84B5816084BD85B5826085BD85B50E
:100EB000816085BD80916E00816080936E0010928C
:100EC0008100809181008260809381008091810007
:100ED0008160809381008091800081608093800098
:100EE0008091B10084608093B1008091B0008160F6
:100EF0008093B00080917A00846080937A00809122
:100F00007A00826080937A0080917A008160809379
:100F10007A0080917A00806880937A001092C100F4
:100F2000E0912A02F0912B0282E08083E091260278
:100F3000F09127021082E0912802F09129028FECB3
:100F4000808310923202E0912E02F0912F0286E00F
:100F50008083E0912C02F0912D028081806180835A
:100F6000E0912C02F0912D02808188608083E091D5
:100F70002C02F0912D02808180688083E0912C0208
:100F8000F0912D0280818F7D80831092D802109283
:100F9000D7021092D6021092D5021092D40210926B
:100FA000D3028DE991E09093DA028093D902909177
:100FB000C902963108F047C02DEB30E03093D402DF
:100FC0002093D3022BE931E03093D6022093D5024F
:100FD0002CE231E03093D8022093D70220916800B0
:100FE00084E0983048F031E09E3008F430E081E051
:100FF00001C0880F3A95EAF7822B809368002DE6AE
:1010000030E0983050F02BE630E09E3030F02CE6A7
:1010100030E0963110F030E020E03093D1022093A0
:10102000D002292F30E0983008F015C181E001C0CE
:10103000880F9A95EAF78093D2028091D902909115
:10104000DA020197F1F78091D7029091D802892BAB
:1010500049F1E0911202F091130222E0ED3BF20718
:1010600009F1309739F0A389B4899C9185898095DD
:1010700089238C938091DB028E7F8093DB02109218
:101080001102109210028DEB92E090931302809364
:101090001202E091D002F091D10280819091D202AF
:1010A000892B808360E08EE00E94BA0060E08FE0D0
:1010B0000E94BA0060E080E10E94BA006DE271E037
:1010C0008AE192E00E940D036AE271E08AE192E017
:1010D0000E940D0300E010E08EE00E94CB017C0135
:1010E00090931902809318028FE00E94CB01909395
:1010F00017028093160280E10E94CB0190931502A3
:10110000809314028DE391E00E949A03B701CE010F
:1011100001960E94CF036D817E8189819A810E9410
:101120006A03CE0101960E943A0380E491E00E9496
:101130009A036091160270911702CE0101960E94E7
:10114000CF036D817E8189819A810E946A03CE01DD
:1011500001960E943A0384E491E00E949A03609110
:10116000140270911502CE0101960E94CF036D8189
:101170007E8189819A810E946A03CE0101960E9434
:101180003A038AE192E00E941C0368E471E08AE17C
:1011900092E00E940D036AE271E08AE192E00E940F
:1011A0000D038DEB92E00E941C030E94DD014B01B8
:1011B0005C0188ECC82ED12CE12CF12C0E94DD01C1
:1011C000681979098A099B09683E73408105910570
:1011D000A8F381E0C81AD108E108F10828EE820ED0
:1011E00023E0921EA11CB11CC114D104E104F1043E
:1011F00029F750E040E06CE271E087EB92E00E945A
:10120000A4038DEB92E00E94D102892B49F08DEB73
:1012100092E00E94E902682F8AE192E00E94540164
:101220008AE192E00E941C01892B49F08AE192E058
:101230000E94FA00682F8DEB92E00E947502011562
:10124000110509F449CF0E942801882309F444CFED
:101250000E94000041CF9E3040F42850310981E0C7
:1012600001C0880F2A95EAF7E6CE2E503109F7CF54
:1012700087EB92E00E943A038CE191E09093BE02EA
:101280008093BD0280911202909113028D5B924077
:1012900071F4E091D002F091D10290818091D2025C
:1012A0008095892380831092130210921202089570
:1012B000BB274A3031F4992322F4BDE29095819501
:1012C0009F4F0C946409BB27FB015527AA27880F61
:1012D000991FAA1FA41710F0A41B83955051B9F7AA
:1012E000A05DAA3308F0A95DA193009779F7B11129
:1012F000B1931192CB010C947D09DC01FC01672FA5
:1013000071917723E1F7329704C07C916D937083DC
:101310006291AE17BF07C8F308952F923F924F9284
:101320005F926F927F928F929F92AF92BF92CF9275
:10133000DF92EF92FF920F931F93CF93DF93CDB77E
:10134000DEB7CA1BDB0B0FB6F894DEBF0FBECDBFF6
:1013500009942A88398848885F846E847D848C84C7
:101360009B84AA84B984C884DF80EE80FD800C81D0
:101370001B81AA81B981CE0FD11D0FB6F894DEBFB3
:101380000FBECDBFED01089597FB072E16F4009414
:1013900007D077FD09D00E94D80907FC05D03EF49C
:1013A000909581959F4F0895709561957F4F089511
:1013B000AA1BBB1B51E107C0AA1FBB1FA617B7077B
:1013C00010F0A61BB70B881F991F5A95A9F7809597
:1013D0009095BC01CD010895EE0FFF1F0590F4918B
:1013E000E02D09940F931F93CF93DF9382309105E3
:1013F00010F482E090E0E091DE02F091DF0230E054
:1014000020E0B0E0A0E0309799F42115310509F40F
:101410004AC0281B390B24303105D8F58A819B81BD
:101420006115710589F1FB0193838283FE0111C06F
:10143000408151810281138148175907E0F0481714
:10144000590799F4109761F012960C93129713961E
:101450001C933296CF01DF91CF911F910F91089588
:101460000093DE021093DF02F4CF2115310551F015
:101470004217530738F0A901DB019A01BD01DF01D2
:10148000F801C1CFEF01F9CF9093DF028093DE0224
:10149000CDCFFE01E20FF31F8193919322503109CA
:1014A00039832883D7CF2091DC023091DD02232BB2
:1014B00041F420910201309103013093DD02209329
:1014C000DC0220910001309101012115310541F428
:1014D0002DB73EB74091040150910501241B350BF7
:1014E000E091DC02F091DD02E217F307A0F42E1B7D
:1014F0003F0B2817390778F0AC014E5F5F4F241778
:10150000350748F04E0F5F1F5093DD024093DC0219
:10151000819391939FCFF0E0E0E09CCFCF93DF9356
:101520000097E9F0FC01329713821282A091DE024B
:10153000B091DF02ED0130E020E01097A1F42081AE
:101540003181820F931F2091DC023091DD02281738
:10155000390709F061C0F093DD02E093DC02DF910E
:10156000CF910895EA01CE17DF07E8F54A815B8144
:101570009E0141155105B1F7E901FB83EA834991C9
:101580005991C40FD51FEC17FD0761F4808191813B
:101590000296840F951FE901998388838281938144
:1015A0009B838A83F0E0E0E012968D919C911397E3
:1015B0000097B9F52D913C911197CD010296820FBC
:1015C000931F2091DC023091DD022817390739F68C
:1015D000309751F51092DF021092DE02B093DD02D7
:1015E000A093DC02BCCFD383C28340815181840F9E
:1015F000951FC817D90761F44E5F5F4F88819981A5
:10160000480F591F518340838A819B819383828332
:101610002115310509F0B0CFF093DF02E093DE022F
:101620009ECFFD01DC01C0CF13821282D7CFB0E084
:10163000A0E0EDE1FBE00C948F098C01009751F4E0
:10164000CB010E94F2098C01C801CDB7DEB7E0E101
:101650000C94AB09FC01E60FF71F9C0122503109E5
:10166000E217F30708F49DC0D901CD91DC911197E1
:10167000C617D70798F0C530D10530F3CE010497CF
:101680008617970708F3C61BD70B2297C193D193F0
:101690006D937C93CF010E948E0AD6CF5B01AC1A6A
:1016A000BD0A4C018C0E9D1EA091DE02B091DF029E
:1016B000512C412CF12CE12C109731F58091DC025A
:1016C0009091DD028815990509F05CC04616570611
:1016D00008F058C08091000190910101009741F4F9
:1016E0008DB79EB74091040150910501841B950B65
:1016F000E817F90708F055C0F093DD02E093DC022B
:10170000F90171836083A0CF8D919C9111971296FE
:101710006C90129713967C901397A815B90559F5FC
:101720006C0142E0C40ED11CCA14DB0420F1AC01F0
:101730004A195B09DA011296159780F0628273826A
:1017400051834083D9016D937C93E114F10471F0CE
:10175000D7011396FC93EE93129776CF22968C0FB7
:101760009D1FF90191838083F301EFCFF093DF0296
:10177000E093DE0269CF4816590608F42C017D017A
:10178000D3019ACFCB010E94F2097C01009749F066
:10179000AE01B8010E94D40BC8010E948E0A8701D5
:1017A00053CF10E000E050CFFB01DC0102C00190FC
:1017B0000D9241505040D8F70895FB01DC01019093
:1017C0000D920020E1F7089510E0C2E6D0E004C0D9
:1017D000FE010E94EC092196C336D107C9F7F8949F
:0217E000FFCF39
:1017E2000000E00280000000000054018D00EB00C8
:1017F200A1011C01FA000E010000000075028D001B
:101802000A033302D102E9025D020D0A0052656D3C
:101812006F7465204A6F79737469636B00583A007C
:101822002D593A005F433A00446174612053656E5A
:0C1832007420746F20526F757465720092
:00000001FF
